:1000000083168501860106140516051785178312C8
:100010001B2006185128051A3528051B3A28851B70
:100020004328082806181228051A1228051B12282A
:10003000851B1228082885142808CE2086004C200D
:10004000851005143008CE2086004C2005104C2069
:1000500005152908CE2086004C200511851531088C
:10006000CE2086004C2085110800A801A901B0010E
:10007000B10112280930280203184028A80A1228C2
:10008000A801B00A12280930290203184928A90A30
:100090001228A901B10A1228FF30A700A70B4E2889
:1000A00008002808A600A60AA60B572860282908D9
:1000B000A4070A302402031C5428A400A50A5428CB
:1000C0002408A0002508A1002808A600A60AA4016B
:1000D000A60B6B2876283108A4070A302402031CDB
:1000E0006828A400A50A2408A10068283008A600F2
:1000F000A60AA60B7C2885282908B4070A303402F2
:10010000031C7928B400B40A792824083407A10014
:100110000A3021020318A8202508A2070A3022026B
:100120000318AB203008A600A60AA401A501A60B5F
:100130009A28A3283108A4070A302402031C972810
:10014000A400A50A97282408A2072508A307AE281B
:10015000A100A20A0800A200A30A0800A401A501A8
:10016000B420051A1228AE2885142008CE20860057
:100170004C20851005142108CE2086004C20051047
:100180004C2005152208CE2086004C20051185152F
:100190002308CE2086004C208511080082077F347A
:1001A0000D34B7349F34CD34DB34FB340F34FF349B
:0201B000CF344A
:02400E00503F21
:00000001FF
