:1000000083168501860106140516051785178312C8
:10001000B72006185428051A3528051B3D28851BCE
:100020004628082806181228051A1228051B122827
:10003000851B1228082885142808D12086004F2007
:10004000851005143008D12086004F2005104F2060
:1000500005152908D12086004F2005118515310886
:10006000D12086004F2085110800A801A901B00108
:10007000B101A001A101A201122809302802031830
:100080004328A80A1228A801B00A12280930290218
:1000900003184C28A90A1228A901B10A1228FF3016
:1000A000A700A70B512808002808A600A60AA60B3F
:1000B0005A2863282908A4070A302402031C572859
:1000C000A400A50A57282408A0002508A100280894
:1000D000A600A60AA401A60B6E2879283108A40759
:1000E0000A302402031C6B28A400A50A2408A100DE
:1000F0006B283008A600A60AA60B7F2888282908A6
:10010000B3070A303302031C7C28B300B30A7C28EF
:1001100024083307A1000A3021020318AB20250868
:10012000A2070A3022020318AE203008A600A60A51
:10013000A401A501A60B9D28A6283108A4070A3012
:100140002402031C9A28A400A50A9A282408A207BE
:100150002508A307B128A100A20A0800A200A30A4B
:100160000800A401A501B720051A1228B12885149A
:100170002008D12086004F20851005142108D120A9
:1001800086004F2005104F2005152208D12086003B
:100190004F20051185152308D12086004F20851199
:1001A000080082077F340D34B7349F34CD34DB34FC
:0801B000FB340F34FF34CF349F
:02400E00503F21
:00000001FF
